:100000000C942A000C94CB010C94E0010C94F501A3
:100010000C941A020C943C000C943C000C940102C9
:100020000C943C000C943C000C9488010C943C0013
:100030000C943C000C943C000C943C000C943C0050
:100040000C943C000C943C000C943C000C943C0040
:100050000C943C0011241FBECFE5D8E0DEBFCDBF1D
:1000600020E0A0E6B0E001C01D92A837B207E1F79A
:100070000E9433020C9429030C940000209162002A
:10008000820F911DFC016083809162008F5F8093DD
:100090006200893011F4109262000895BC0190E072
:1000A00020E030E007C0FB01E90FF11D4081240F83
:1000B000311D9F5F9A30B8F3ADECBCEC0E941A037F
:1000C00096958795969587959695879508950E941C
:1000D000BD0290E006C0E92FF0E0E259FF4F8083B7
:1000E0009F5F9A30C0F38EE690E00E944E008093AE
:1000F00069001092620008958BB38F7E8BBB8FB71F
:100100008F778FBF82B38D7F82BB82B38E7F82BB9E
:1001100088B3877F88BB0895FC018FB780688FBF45
:1001200089B7806489BF1092680010926B0039C053
:1001300030814DEC349F212D11242695269526954E
:10014000220F822F880F880F280F321B30936400F4
:100150009081949F912D11249695969596959093C4
:1001600066008BB3982B9BBB85B390916400982B52
:1001700095BB9BB390619BBB2FE986E891E0215032
:1001800080409040E1F700C000009BB39F7E9BBB86
:100190002FE986E891E0215080409040E1F700C0CF
:1001A000000080916800811104C080916500811178
:1001B000BFCF89B78F7B89BF8BB78F7B8BBF8BB747
:1001C0008F778BBF08952091610030E080916C00A3
:1001D00090E0AC01455051094217530754F082B3E7
:1001E0008D7F82BB82B3816082BB89B7846089BF07
:1001F00008950596281739076CF082B38E7F82BB6D
:1002000082B3826082BB89B78B7F89BF88B38860E5
:1002100088BB089589B78B7F89BF82B38D7F82BBEE
:1002200082B38E7F82BB88B3877F88BB08958AB3F1
:1002300081608ABB8AB382608ABB8AB384608ABBCE
:100240008AB388608ABB8AB380618ABB84B38160C9
:1002500084BB84B3826084BB84B3846084BB84B376
:10026000886084BB08959BB390619BBB9DEC899F84
:10027000912D1124969596959695392F330F232F0E
:10028000220F220F230F382F321B2BB3922B9BBB35
:1002900085B3832B85BB089587B38B7F87BB81B3E1
:1002A0008B7F81BB81B3877F81BB089581B38260DF
:1002B00081BB82B38D7F82BB089581B3816081BB96
:1002C00082B38E7F82BB08958FB780688FBF8BB754
:1002D00080628BBF84B78F7B84BF08958FB780689F
:1002E0008FBF8BB780648BBF85B7826085BF85B7B2
:1002F0008E7F85BF08958FB780688FBF8BB780686A
:100300008BBF85B7886085BF85B78B7F85BF089514
:100310001F920F920FB60F9211242F933F934F937A
:100320005F936F937F938F939F93AF93BF93EF935D
:10033000FF93909160009F5F909360008BEA989F7D
:10034000812D112486958695282F220F820F282F24
:10035000220F92130FC00E94BD0280936700682F86
:100360008EE690E00E943E008EE690E00E944E00F5
:1003700080936900FF91EF91BF91AF919F918F9111
:100380007F916F915F914F913F912F910F900FBE91
:100390000F901F9018951F920F920FB60F92112475
:1003A0008F9380916C00873418F48B5F80936C007E
:1003B00010926B008F910F900FBE0F901F901895A9
:1003C0001F920F920FB60F9211248F9380916C00A1
:1003D000883218F0855080936C0010926B008F91DA
:1003E0000F900FBE0F901F9018951F920F920FB68F
:1003F0000F921124109265000F900FBE0F901F9066
:1004000018951F920F920FB60F9211248F939F93FE
:1004100080916D008F5F80936D00837021F498B39D
:1004200088E0892788BB9F918F910F900FBE0F9016
:100430001F9018951F920F920FB60F9211248F9351
:1004400080916B00833120F48F5F80936B0005C037
:1004500081E08093680010926B008F910F900FBE27
:100460000F901F9018950E944C0187B3886087BB3E
:100470000E945D010E9456010E9417018CE3809347
:100480006C000E94C8020E94E2020E9404030E94C3
:10049000B5020E94670060916C0070E080E090E01F
:1004A0000E949B0286B38823E9F381E08093650074
:1004B0000E94640180E090E00E94940280936C00AE
:1004C00025C080B3882359F080B38111FDCF0E94ED
:1004D0006E010E947B018CE690E00E948C0080B34C
:1004E000882359F080B38111FDCF0E947B010E94C7
:1004F0006E018CE690E00E948C00809169008093F0
:10050000610090E00E9433010E94E3008091650049
:100510008111D7CF60916C0070E080E090E00E9484
:100520009B020E947C00BECF8EBB9FBB8CB38160C0
:100530008CBB8DB308958EBB9FBB6DBB0FB607FE02
:1005400005C08FB78F778FBF91E001C090E08CB36B
:1005500084608CBB8CB382608CBBE199FECF913000
:1005600019F48FB780688FBF08958AB38F778ABBDD
:1005700080E487B987E886B9089587B1876087B92D
:1005800086B1806486B93699FECF84B195B108955D
:1005900083B78F7B83BF83B7877F83BF83B78F7D0D
:1005A00083BF83B78F7E83BF83B7816083BF83B7E9
:1005B000826083BF83B78B7F83BF789489B7816064
:1005C00089BF08958FB58F7E8FBD8FB58F7D8FBD0D
:1005D0008FB58F7B8FBD8FB58F778FBD8FB58E7F9A
:1005E0008FBD8FB58D7F8FBD8EB5877F8EBD8EB54C
:1005F0008F7E8EBD8EB581608EBD8EB58D7F8EBD9A
:100600008EB584608EBD089585B5877F85BD85B51F
:100610008F7B85BD85B58F7E85BD85B58F7D85BD7D
:1006200085B5816085BD85B5826085BD85B58460F1
:1006300085BD0895A29FB001B39FC001A39F700D17
:10064000811D1124911DB29F700D811D1124911DDA
:060650000895F894FFCFAD
:00000001FF
